{
  "contractName": "Status",
  "abi": [
    {
      "inputs": [],
      "stateMutability": "nonpayable",
      "type": "constructor"
    },
    {
      "inputs": [
        {
          "internalType": "uint32",
          "name": "",
          "type": "uint32"
        }
      ],
      "name": "updates",
      "outputs": [
        {
          "internalType": "uint32",
          "name": "id",
          "type": "uint32"
        },
        {
          "internalType": "uint32",
          "name": "timestamp",
          "type": "uint32"
        },
        {
          "internalType": "enum Status.Severity",
          "name": "impact",
          "type": "uint8"
        },
        {
          "internalType": "string",
          "name": "heading",
          "type": "string"
        },
        {
          "internalType": "string",
          "name": "message",
          "type": "string"
        }
      ],
      "stateMutability": "view",
      "type": "function",
      "constant": true
    },
    {
      "inputs": [],
      "name": "getCount",
      "outputs": [
        {
          "internalType": "uint32",
          "name": "",
          "type": "uint32"
        }
      ],
      "stateMutability": "view",
      "type": "function",
      "constant": true
    },
    {
      "inputs": [
        {
          "internalType": "enum Status.Severity",
          "name": "severity",
          "type": "uint8"
        },
        {
          "internalType": "string",
          "name": "heading",
          "type": "string"
        },
        {
          "internalType": "string",
          "name": "message",
          "type": "string"
        }
      ],
      "name": "addUpdate",
      "outputs": [],
      "stateMutability": "nonpayable",
      "type": "function"
    },
    {
      "inputs": [
        {
          "internalType": "uint32",
          "name": "id",
          "type": "uint32"
        }
      ],
      "name": "getUpdate",
      "outputs": [
        {
          "components": [
            {
              "internalType": "uint32",
              "name": "id",
              "type": "uint32"
            },
            {
              "internalType": "uint32",
              "name": "timestamp",
              "type": "uint32"
            },
            {
              "internalType": "enum Status.Severity",
              "name": "impact",
              "type": "uint8"
            },
            {
              "internalType": "string",
              "name": "heading",
              "type": "string"
            },
            {
              "internalType": "string",
              "name": "message",
              "type": "string"
            }
          ],
          "internalType": "struct Status.Update",
          "name": "",
          "type": "tuple"
        }
      ],
      "stateMutability": "view",
      "type": "function",
      "constant": true
    },
    {
      "inputs": [
        {
          "internalType": "uint32",
          "name": "cursor",
          "type": "uint32"
        },
        {
          "internalType": "uint8",
          "name": "amount",
          "type": "uint8"
        }
      ],
      "name": "getUpdates",
      "outputs": [
        {
          "components": [
            {
              "internalType": "uint32",
              "name": "id",
              "type": "uint32"
            },
            {
              "internalType": "uint32",
              "name": "timestamp",
              "type": "uint32"
            },
            {
              "internalType": "enum Status.Severity",
              "name": "impact",
              "type": "uint8"
            },
            {
              "internalType": "string",
              "name": "heading",
              "type": "string"
            },
            {
              "internalType": "string",
              "name": "message",
              "type": "string"
            }
          ],
          "internalType": "struct Status.Update[]",
          "name": "",
          "type": "tuple[]"
        },
        {
          "internalType": "uint32",
          "name": "nextCursor",
          "type": "uint32"
        }
      ],
      "stateMutability": "view",
      "type": "function",
      "constant": true
    }
  ],
  "bytecode": "0x608060405234801561001057600080fd5b5060008060006101000a81548163ffffffff021916908363ffffffff1602179055506064600060046101000a81548160ff021916908360ff16021790555061128e8061005d6000396000f3fe608060405234801561001057600080fd5b50600436106100575760003560e01c8063a87d942c1461005c578063f28dae711461007a578063f99b53dd146100ab578063fbc8bb0d146100df578063fc3f31f21461010f575b600080fd5b61006461012b565b6040516100719190610ea3565b60405180910390f35b610094600480360381019061008f9190610be0565b610144565b6040516100a2929190610e51565b60405180910390f35b6100c560048036038101906100c09190610bb3565b610433565b6040516100d6959493929190610ebe565b60405180910390f35b6100f960048036038101906100f49190610bb3565b6105a6565b6040516101069190610e81565b60405180910390f35b61012960048036038101906101249190610b1e565b61078a565b005b60008060009054906101000a900463ffffffff16905090565b606060008360008054906101000a900463ffffffff166101649190610fbf565b63ffffffff168360ff161115610193578360008054906101000a900463ffffffff166101909190610fbf565b92505b60008360ff1667ffffffffffffffff8111156101b2576101b16111ad565b5b6040519080825280602002602001820160405280156101eb57816020015b6101d8610999565b8152602001906001900390816101d05790505b50905060005b8460ff168160ff16101561041657600160008260ff16886102129190610f85565b63ffffffff1663ffffffff1681526020019081526020016000206040518060a00160405290816000820160009054906101000a900463ffffffff1663ffffffff1663ffffffff1681526020016000820160049054906101000a900463ffffffff1663ffffffff1663ffffffff1681526020016000820160089054906101000a900460ff1660048111156102a8576102a7611120565b5b60048111156102ba576102b9611120565b5b81526020016001820180546102ce90611068565b80601f01602080910402602001604051908101604052809291908181526020018280546102fa90611068565b80156103475780601f1061031c57610100808354040283529160200191610347565b820191906000526020600020905b81548152906001019060200180831161032a57829003601f168201915b5050505050815260200160028201805461036090611068565b80601f016020809104026020016040519081016040528092919081815260200182805461038c90611068565b80156103d95780601f106103ae576101008083540402835291602001916103d9565b820191906000526020600020905b8154815290600101906020018083116103bc57829003601f168201915b505050505081525050828260ff16815181106103f8576103f761117e565b5b6020026020010181905250808061040e906110c7565b9150506101f1565b50808460ff16866104279190610f85565b92509250509250929050565b60016020528060005260406000206000915090508060000160009054906101000a900463ffffffff16908060000160049054906101000a900463ffffffff16908060000160089054906101000a900460ff169080600101805461049590611068565b80601f01602080910402602001604051908101604052809291908181526020018280546104c190611068565b801561050e5780601f106104e35761010080835404028352916020019161050e565b820191906000526020600020905b8154815290600101906020018083116104f157829003601f168201915b50505050509080600201805461052390611068565b80601f016020809104026020016040519081016040528092919081815260200182805461054f90611068565b801561059c5780601f106105715761010080835404028352916020019161059c565b820191906000526020600020905b81548152906001019060200180831161057f57829003601f168201915b5050505050905085565b6105ae610999565b600160008363ffffffff1663ffffffff1681526020019081526020016000206040518060a00160405290816000820160009054906101000a900463ffffffff1663ffffffff1663ffffffff1681526020016000820160049054906101000a900463ffffffff1663ffffffff1663ffffffff1681526020016000820160089054906101000a900460ff16600481111561064957610648611120565b5b600481111561065b5761065a611120565b5b815260200160018201805461066f90611068565b80601f016020809104026020016040519081016040528092919081815260200182805461069b90611068565b80156106e85780601f106106bd576101008083540402835291602001916106e8565b820191906000526020600020905b8154815290600101906020018083116106cb57829003601f168201915b5050505050815260200160028201805461070190611068565b80601f016020809104026020016040519081016040528092919081815260200182805461072d90611068565b801561077a5780601f1061074f5761010080835404028352916020019161077a565b820191906000526020600020905b81548152906001019060200180831161075d57829003601f168201915b5050505050815250509050919050565b6040518060a0016040528060008054906101000a900463ffffffff1663ffffffff1681526020014263ffffffff1681526020018660048111156107d0576107cf611120565b5b815260200185858080601f016020809104026020016040519081016040528093929190818152602001838380828437600081840152601f19601f82011690508083019250505050505050815260200183838080601f016020809104026020016040519081016040528093929190818152602001838380828437600081840152601f19601f82011690508083019250505050505050815250600160008060009054906101000a900463ffffffff1663ffffffff1663ffffffff16815260200190815260200160002060008201518160000160006101000a81548163ffffffff021916908363ffffffff16021790555060208201518160000160046101000a81548163ffffffff021916908363ffffffff16021790555060408201518160000160086101000a81548160ff021916908360048111156109105761090f611120565b5b021790555060608201518160010190805190602001906109319291906109e6565b50608082015181600201908051906020019061094e9291906109e6565b5090505060008081819054906101000a900463ffffffff16809291906109739061109a565b91906101000a81548163ffffffff021916908363ffffffff160217905550505050505050565b6040518060a00160405280600063ffffffff168152602001600063ffffffff168152602001600060048111156109d2576109d1611120565b5b815260200160608152602001606081525090565b8280546109f290611068565b90600052602060002090601f016020900481019282610a145760008555610a5b565b82601f10610a2d57805160ff1916838001178555610a5b565b82800160010185558215610a5b579182015b82811115610a5a578251825591602001919060010190610a3f565b5b509050610a689190610a6c565b5090565b5b80821115610a85576000816000905550600101610a6d565b5090565b600081359050610a988161121a565b92915050565b60008083601f840112610ab457610ab36111e1565b5b8235905067ffffffffffffffff811115610ad157610ad06111dc565b5b602083019150836001820283011115610aed57610aec6111e6565b5b9250929050565b600081359050610b038161122a565b92915050565b600081359050610b1881611241565b92915050565b600080600080600060608688031215610b3a57610b396111f0565b5b6000610b4888828901610a89565b955050602086013567ffffffffffffffff811115610b6957610b686111eb565b5b610b7588828901610a9e565b9450945050604086013567ffffffffffffffff811115610b9857610b976111eb565b5b610ba488828901610a9e565b92509250509295509295909350565b600060208284031215610bc957610bc86111f0565b5b6000610bd784828501610af4565b91505092915050565b60008060408385031215610bf757610bf66111f0565b5b6000610c0585828601610af4565b9250506020610c1685828601610b09565b9150509250929050565b6000610c2c8383610d39565b905092915050565b6000610c3f82610f2f565b610c498185610f52565b935083602082028501610c5b85610f1f565b8060005b85811015610c975784840389528151610c788582610c20565b9450610c8383610f45565b925060208a01995050600181019050610c5f565b50829750879550505050505092915050565b610cb281611023565b82525050565b610cc181611023565b82525050565b6000610cd282610f3a565b610cdc8185610f63565b9350610cec818560208601611035565b610cf5816111f5565b840191505092915050565b6000610d0b82610f3a565b610d158185610f74565b9350610d25818560208601611035565b610d2e816111f5565b840191505092915050565b600060a083016000830151610d516000860182610e33565b506020830151610d646020860182610e33565b506040830151610d776040860182610ca9565b5060608301518482036060860152610d8f8282610cc7565b91505060808301518482036080860152610da98282610cc7565b9150508091505092915050565b600060a083016000830151610dce6000860182610e33565b506020830151610de16020860182610e33565b506040830151610df46040860182610ca9565b5060608301518482036060860152610e0c8282610cc7565b91505060808301518482036080860152610e268282610cc7565b9150508091505092915050565b610e3c81611006565b82525050565b610e4b81611006565b82525050565b60006040820190508181036000830152610e6b8185610c34565b9050610e7a6020830184610e42565b9392505050565b60006020820190508181036000830152610e9b8184610db6565b905092915050565b6000602082019050610eb86000830184610e42565b92915050565b600060a082019050610ed36000830188610e42565b610ee06020830187610e42565b610eed6040830186610cb8565b8181036060830152610eff8185610d00565b90508181036080830152610f138184610d00565b90509695505050505050565b6000819050602082019050919050565b600081519050919050565b600081519050919050565b6000602082019050919050565b600082825260208201905092915050565b600082825260208201905092915050565b600082825260208201905092915050565b6000610f9082611006565b9150610f9b83611006565b92508263ffffffff03821115610fb457610fb36110f1565b5b828201905092915050565b6000610fca82611006565b9150610fd583611006565b925082821015610fe857610fe76110f1565b5b828203905092915050565b600081905061100182611206565b919050565b600063ffffffff82169050919050565b600060ff82169050919050565b600061102e82610ff3565b9050919050565b60005b83811015611053578082015181840152602081019050611038565b83811115611062576000848401525b50505050565b6000600282049050600182168061108057607f821691505b602082108114156110945761109361114f565b5b50919050565b60006110a582611006565b915063ffffffff8214156110bc576110bb6110f1565b5b600182019050919050565b60006110d282611016565b915060ff8214156110e6576110e56110f1565b5b600182019050919050565b7f4e487b7100000000000000000000000000000000000000000000000000000000600052601160045260246000fd5b7f4e487b7100000000000000000000000000000000000000000000000000000000600052602160045260246000fd5b7f4e487b7100000000000000000000000000000000000000000000000000000000600052602260045260246000fd5b7f4e487b7100000000000000000000000000000000000000000000000000000000600052603260045260246000fd5b7f4e487b7100000000000000000000000000000000000000000000000000000000600052604160045260246000fd5b600080fd5b600080fd5b600080fd5b600080fd5b600080fd5b6000601f19601f8301169050919050565b6005811061121757611216611120565b5b50565b6005811061122757600080fd5b50565b61123381611006565b811461123e57600080fd5b50565b61124a81611016565b811461125557600080fd5b5056fea2646970667358221220207aa6f93cf6d590cc33bd7dcd2286581c46b2c7a9037ef1550e8f96150efb1e64736f6c63430008060033",
  "immutableReferences": {},
  "source": "//SPDX-License-Identifier: UNLICENSED\r\npragma solidity ^0.8.6;\r\n\r\ncontract Status {\r\n    uint32 count;\r\n    uint8 maxLimit;\r\n\r\n    enum Severity {\r\n        CRITICAL,\r\n        MAJOR,\r\n        MINOR,\r\n        NONE,\r\n        MAINTENANCE\r\n    }\r\n\r\n    struct Update {\r\n        uint32 id;\r\n        uint32 timestamp;\r\n        Severity impact;\r\n        string heading;\r\n        string message;\r\n    }\r\n\r\n    mapping(uint32 => Update) public updates;\r\n\r\n    constructor() {\r\n        count = 0;\r\n        maxLimit = 100;\r\n    }\r\n\r\n    function getCount() public view returns(uint32) {\r\n        return count;\r\n    }\r\n\r\n    function addUpdate(\r\n        Severity severity,\r\n        string calldata heading,\r\n        string calldata message\r\n    )\r\n        public\r\n    {\r\n        updates[count] = Update(\r\n            count,\r\n            uint32(block.timestamp),\r\n            severity,\r\n            heading,\r\n            message\r\n        );\r\n        count++;\r\n    }\r\n\r\n    function getUpdate(uint32 id)\r\n        public\r\n        view\r\n        returns (Update memory)\r\n    {\r\n        return updates[id];\r\n    }\r\n\r\n    function getUpdates(uint32 cursor, uint8 amount)\r\n        public\r\n        view\r\n        returns (Update[] memory, uint32 nextCursor)\r\n    {\r\n        if (amount > (count - cursor)) {\r\n            amount = uint8(count - cursor);\r\n        }\r\n\r\n        Update[] memory values = new Update[](amount);\r\n\r\n        for (uint8 i = 0; i < amount; i++) {\r\n            values[i] = updates[cursor + i];\r\n        }\r\n\r\n        return (values, cursor + amount);\r\n    }\r\n}\r\n",
  "sourcePath": "C:\\code\\statuschain\\contracts\\Status.sol",
  "compiler": {
    "name": "solc",
    "version": "0.8.6+commit.11564f7e.Emscripten.clang"
  },
  "schemaVersion": "3.4.3",
  "updatedAt": "2021-09-04T11:53:04.707Z",
  "networkType": "ethereum",
  "devdoc": {
    "kind": "dev",
    "methods": {},
    "version": 1
  },
  "userdoc": {
    "kind": "user",
    "methods": {},
    "version": 1
  }
}